:020000040000FA
:1000000060280020750400007F0400007D040000CB
:10001000810400008304000085040000000000004B
:100020000000000000000000000000008704000045
:100030008904000000000000090D0000D506000042
:100040008F04000091040000930400009504000058
:1000500097040000990400009B0400009D04000028
:100060009F040000A1040000000000000000000048
:100070000000000000000000000000000000000080
:100080000000000000000000000000000000000070
:100090000000000000000000000000000000000060
:1000A0000000000000000000000000000000000050
:1003C00000F002F800F03AF80AA090E8000C82442D
:1003D0008344AAF10107DA4501D100F02FF8AFF20A
:1003E000090EBAE80F0013F0010F18BFFB1A43F013
:1003F000010318475009000070090000103A24BF9B
:1004000078C878C1FAD8520724BF30C830C144BF79
:1004100004680C60704700000023002400250026BB
:10042000103A28BF78C1FBD8520728BF30C148BF57
:100430000B6070471FB51FBD10B510BDDFF80CD0A5
:10044000FFF7F8FF00F054FA00F05AF86028002097
:1004500003B4FFF7F1FF03BC00F05CF862B670472D
:1004600072B67047EFF3108062B6704780F3108861
:10047000704700000B4880470B480047FEE7FEE747
:10048000FEE7FEE7FEE7FEE7FEE7FEE7FEE7FEE744
:10049000FEE7FEE7FEE7FEE7FEE7FEE7FEE7FEE734
:1004A000FEE700000D070000590800004FF00002B1
:1004B00000B5134694469646203922BFA0E80C505A
:1004C000A0E80C50B1F12001BFF4F7AF090728BF35
:1004D000A0E80C5048BF0CC05DF804EB890028BFB1
:1004E00040F8042B08BF704748BF20F8022B11F0DA
:1004F000804F18BF00F8012B704770477047704756
:1005000010B50446AFF300802046BDE81040FFF769
:100510009FBF704701491820ABBEFEE726000200CE
:1005200040F2D800C2F20000006881B2B1FA81F254
:100530005209002908BF000C1101C2B2002A04BFF1
:10054000000A083110F00F0204BF0009043110F056
:10055000030204BF80080231012222EA000008449D
:10056000C0B2704740F2D800C2F200000021016022
:100570007047000080B540F2DC00C2F200004FF48A
:10058000C071FFF793FF80BD80B540F20C00C2F24E
:100590000000C021FFF78AFF80BD0000F0B5017B9D
:1005A000012301F01F0240F2DC0E03FA02F501EB19
:1005B0004102C2F2000E40F2D8060EEB8203C1F3F4
:1005C0004214C2F20006194656F8247051F808CFBA
:1005D0003D43BCF1000F46F8245006D05A685860DD
:1005E0005769C0E90427506105E04EF82200002257
:1005F0005860C0E904220CF101000860F0BD000061
:100600008168022938BF704701684368D1F814C077
:100610000022CCF810205A69C0F800C0C1E90432A9
:100620005961416070470000B0B5027B40F2DC04C4
:1006300002EB4203C2F2000404EB83031C46416B4D
:1006400054F808CF41F0FF01BCF1000F416308BF2F
:10065000B0BDBCF1010F15D10021C3E9001140F27A
:10066000D803C2F34211C2F2000302F01F024FF09E
:10067000010E53F821500EFA02F225EA020243F865
:1006800021200EE0D0E9042E3AB1BEF1000F07D0D0
:10069000C2F814E041690A6103E0C3F800E000E039
:1006A0005A600021C0E90411ACF101002060B0BD26
:1006B00040F2D8034109C2F2000300F01F004FF0DE
:1006C000010C53F821200CFA00F00243002043F8FB
:1006D0002120704710B5FFF7C5FE044600F02AF848
:1006E00040F2D000C2F20000006840F2DC0100EBF2
:1006F0004000C2F2000101EB800000F093F82046B8
:10070000FFF7B4FE00F070F810BD000040F20000EA
:100710004EF60851C0F20000CEF20001086040F22F
:10072000000041F60031C2F20000C0F2B7010160E2
:100730007047000070B540F20804C2F2000420685F
:1007400040F20C02411C01F00F0000EB4000C2F22D
:10075000000252F820002160002808BF70BD00256B
:100760000FE000BF8269D661C369002B18BF9A6190
:100770004A688561013AC5614A60FFF70FFF30465C
:1007800086B1816A2268C669891A4162F7D1016A15
:100790000A688242E6D1002E0E60E9D0002233467C
:1007A0009A61E5E770BD000080B584B040F2A021F9
:1007B000C2F200011F208031CDE9001040F2682113
:1007C00040F649424FF0010C05A0C2F20001C0F210
:1007D00000020023CDF808C000F014F904B080BD79
:1007E00069646C650000000010B5FFF73BFE04462D
:1007F000FFF796FE40F2D001C2F20001086040F21D
:10080000DC0100EB4000C2F2000151F8200040F290
:10081000D401C2F2000108602046FFF727FE00F075
:100820006FFA10BD80B5016861B140F26822C2F272
:100830000002914206D0CA6A002A1CBF013ACA626D
:10084000CA6A02B180BD8268022A38BF80BD0A6BC5
:10085000CA62FFF7D5FE80BDB0B584B0FFF700FED9
:100860000120012500F0AEF840F2CC0040F2D404A3
:10087000C2F200000021C2F2000401602160FFF713
:1008800071FEFFF777FEFFF77FFEFFF78DFF40F267
:100890005831C2F20001102001F50061CDE90010CD
:1008A00040F2203140F6B5120FA0C2F20001C0F2B2
:1008B00000020023029500F0A5F8FFF731FE40F298
:1008C000DC0300EB4002C2F2000340F2D00153F817
:1008D0002220C2F2000108602260FFF7BFFD00F095
:1008E00003FA04B0B0BD00BF6D61696E0000000086
:1008F000B0B540F6604040F65834C2F20000C2F293
:10090000000400F50060A06340F6A140C0F20000C2
:1009100022A341F26045C4E9133040F6B030C2F280
:100920000005C2F2000005F5006540F6C14C856384
:10093000C0F2000C1BA5C0E9135C40F60845022379
:10094000C2F2000580F83C3085F83C3041F6604347
:100950000122C2F2000384F83C20026403F5006324
:100960002A6440F6D5420021AB63C0F200020FA317
:1009700084F844102164616580F84410416585F86D
:100980004410C5E91332696500F0AAF8284600F062
:10099000A7F8204600F0A4F80020B0BD7461736B86
:1009A000310000007461736B320000007461736B7E
:1009B0003300000080B5FFF79BFF002000F078F8BF
:1009C00080BD000040F20001C2F200010968E0228F
:1009D000484344F6D351C1F26201A0FB01014FF03C
:1009E000FF3000EB91104EF21001CEF20001486092
:1009F0004EF62350CEF200000270002088600720DF
:100A0000086070472DE9F04381B0984617460D46BF
:100A1000FFF728FD0446002D4FF0FF0618BF002FFA
:100A200006D12046FFF722FD70B201B0BDE8F08389
:100A300008980028F5D00999202901D9FF26F3E765
:100A40000A9A002629730421C5E90966C5E90B2223
:100A500040F8401D022201234FF0807C0321C0E9B1
:100A6000093200F12C024FF0140E4FF0120982E807
:100A70000242C0E90E7C4FF0110C0622052307212B
:100A8000C0E9013200F10C02C0E907C8286028461D
:100A9000C5E906664FF0100E4FF00909082782E8F5
:100AA0008242FFF77BFD287BFFF702FEB9E70000DB
:100AB000B0B50546FFF7D6FC04461DB12846FFF742
:100AC000B3FD06E040F2CC00C2F200000068FFF780
:100AD000ABFD2046FFF7CAFCFFF786FEB0BD000065
:100AE0002DE9F0470546FFF7BDFC296D0446C9B165
:100AF00095F8440010B9A86B00284FD02E1D304641
:100B000000F0A4F8E96C0246082830464FF00808C7
:100B1000A8BF424600F0AAF895F83C20202A03D945
:100B2000FF263CE0FF263AE0A86B2B6C0026D5E9B7
:100B300014714FF0807CC5E90966C5E90B332A734F
:100B40004FF0140E0222012340F804CC4FF0110C98
:100B50004FF012094FF0030A40E9073240E903E77A
:100B60000623052740E909C1042140E905A940E918
:100B70000F73A0F1340340F8401D07222860284677
:100B8000C5E906664FF0100E4FF0090983E80443EB
:100B9000FFF704FD287BFFF78BFD00E0FF262046D2
:100BA000FFF764FC70B2BDE8F0870000B0B5054601
:100BB000FFF758FC40F2CC0CC2F2000CDCF800202D
:100BC0000446516B40F20C0341F0010040F2080171
:100BD000C2F20001096850634819906200F00F00EA
:100BE00000EB4001C2F2000353F8210003EB810344
:100BF000556258B10146406AA8420BD8C86900281E
:100C0000F8D10020CA61C2E906100EE000201A6087
:100C1000D0610AE0086A4568012D08BF0260886952
:100C2000906188698A61C261D16158681362411C10
:100C3000DCF800005960FFF7F7FC2046FFF716FCD0
:100C4000FFF7D2FDB0BD0000FEE70000002804BFA2
:100C50004FF0FF3070474FF0FF3100BF421852781D
:100C60000131002AFAD1481C704700008446002850
:100C70004FF0FF3018BF002900D170470020012A33
:100C800098BF01220B5C002B18BF01230CF8003029
:100C900008BF704701308242F4D11046704700000F
:100CA00040F25C24C2F200040025012602202560E7
:100CB000FFF77CFF02202660FFF778FFF6E70000D1
:100CC00040F26020C2F200000021012201600260B7
:100CD000FCE7000040F26420C2F200000021012283
:100CE00001600260FCE7000012484FF0FF01017054
:100CF000002080F3098810484FF08051016062B6EF
:100D00000D484FF080510160EFF3098020B120E9D8
:100D1000F00F0A4909680860084809490A68026032
:100D20001068B0E8F00F80F309884EF0040E7047A9
:100D300000BF00BF22ED00E004ED00E0CC00002089
:100D4000D4000020680D0000000000200800000012
:100D5000FC030000700D000008000020582800006F
:100D60001804000000000000001BB7000000000095
:04000005000003C133
:00000001FF
