:020000040000FA
:1000000018200020750400007F0400007D0400001B
:10001000810400008304000085040000000000004B
:100020000000000000000000000000008704000045
:100030008904000000000000A90900003906000042
:100040008F04000091040000930400009504000058
:1000500097040000990400009B0400009D04000028
:100060009F040000A1040000000000000000000048
:100070000000000000000000000000000000000080
:100080000000000000000000000000000000000070
:100090000000000000000000000000000000000060
:1000A0000000000000000000000000000000000050
:1003C00000F002F800F03AF80AA090E8000C82442D
:1003D0008344AAF10107DA4501D100F02FF8AFF20A
:1003E000090EBAE80F0013F0010F18BFFB1A43F013
:1003F00001031847F005000010060000103A24BF62
:1004000078C878C1FAD8520724BF30C830C144BF79
:1004100004680C60704700000023002400250026BB
:10042000103A28BF78C1FBD8520728BF30C148BF57
:100430000B6070471FB51FBD10B510BDDFF80CD0A5
:10044000FFF7F8FF00F09CF900F05AF818200020A0
:1004500003B4FFF7F1FF03BC00F05CF862B670472D
:1004600072B67047EFF3108062B6704780F3108861
:10047000704700000B4880470B480047FEE7FEE747
:10048000FEE7FEE7FEE7FEE7FEE7FEE7FEE7FEE744
:10049000FEE7FEE7FEE7FEE7FEE7FEE7FEE7FEE734
:1004A000FEE700007D060000E50600004FF00002B8
:1004B00000B5134694469646203922BFA0E80C505A
:1004C000A0E80C50B1F12001BFF4F7AF090728BF35
:1004D000A0E80C5048BF0CC05DF804EB890028BFB1
:1004E00040F8042B08BF704748BF20F8022B11F0DA
:1004F000804F18BF00F8012B704770477047704756
:1005000010B50446AFF300802046BDE81040FFF769
:100510009FBF704701491820ABBEFEE726000200CE
:1005200040F214034109C2F2000300F01F004FF033
:10053000010C53F821200CFA00F08243002043F80C
:100540002120704740F21400C2F20000006881B21E
:10055000B1FA81F25209002908BF000C1101C2B2A0
:10056000002A04BF000A083110F00F0204BF00097E
:10057000043110F0030204BF80080231012222EA94
:1005800000000844C0B270477047000040F21400F9
:10059000C2F20000002101607047000080B540F207
:1005A0001800C2F200004FF4C071FFF77FFF80BD5A
:1005B000F0B5017B012301F01F0240F2180E03FA8F
:1005C00002F501EB4102C2F2000E40F214060EEBFE
:1005D0008203C1F34214C2F20006194656F8247091
:1005E00051F808CF3D43BCF1000F46F8245006D027
:1005F0005A6858609769C0E90527906105E04EF890
:10060000220000225860C0E905220CF101000860B8
:10061000F0BD000040F214034109C2F2000300F0F3
:100620001F004FF0010C53F821200CFA00F0024398
:10063000002043F82120704770B50025FFF712FF16
:1006400040F218060446C2F2000603E00C35B5F588
:10065000C07F0CD070590028F8D001690029F5D06E
:1006600001390161F2D1007BFFF7D4FFEEE72046AC
:10067000FFF7FCFE00F066F870BD000040F20000DD
:100680004EF60851C0F20000CEF20001086040F2C0
:10069000000047F64001C2F20000C0F27D11016087
:1006A0007047000080B582B01F20009040F2C0105B
:1006B000C2F2000040F2A41140F625124FF0010CE6
:1006C00000F5007305A0C2F20001C0F20002CDF8EF
:1006D00004C000F0C3F802B080BD00BF69646C655F
:1006E0000000000010B5FFF7BBFE012000F096F8F7
:1006F00040F2080040F21004C2F200000021C2F2F1
:10070000000401602160FFF741FFFFF747FFFFF79B
:100710003BFFFFF7C7FF00F033F8FFF713FF40F28E
:10072000180300EB4002C2F2000340F20C0153F840
:100730002220C2F2000108602260FFF78FFE00F065
:1007400023F910BD10B5FFF78DFE0446FFF7FAFE42
:1007500040F20C01C2F20001086040F2180100EB07
:100760004000C2F2000151F8200040F21001C2F234
:10077000000108602046FFF779FE00F011F910BD76
:1007800010B582B00120009040F2C030C2F20000EB
:1007900041F6C03140F62912002400F5006319A08B
:1007A000C2F20001C0F20002019400F057F80220EA
:1007B000009040F6C030C2F2000041F6DC3140F655
:1007C000491200F5006311A0C2F20001C0F200025C
:1007D000019400F043F80320009041F2C030C2F2CF
:1007E000000041F6F83140F6691200F5006309A0F7
:1007F000C2F20001C0F20002019400F02FF80020C4
:1008000002B010BD7461736B310000007461736BD2
:10081000320000007461736B3300000040F200018D
:10082000C2F200010968E022484344F6D351C1F204
:100830006201A0FB01014FF0FF3000EB91104EF27E
:100840001001CEF2000148604EF62350CEF20000B7
:100850000270002088600720086070472DE9F0438F
:1008600081B01E4617460D46FFF7FCFD8046002D61
:100870004FF0FF0418BF002F06D14046FFF7F6FDEA
:1008800060B201B0BDE8F083002EF6D008992029AF
:1008900001D9FF24F4E70024297304212C6146F8D0
:1008A000401D022101220320C6E9092106F12C0185
:1008B0004FF01409122381E8090206200521DDF812
:1008C00024C04FF0807E0922C6E9011006F1140011
:1008D000C6E90E7E4FF0110E4FF0100908230727CE
:1008E00080E804422846C6E90373C6F820C02E609B
:1008F000FFF75EFE287BFFF78DFEBEE7B0B504462E
:10090000FFF7B0FD40F20801C2F200010968054698
:10091000087B0C61FFF704FE2846FFF7A7FDFFF7F1
:1009200011FFB0BDFEE7000040F29814C2F20004CF
:100930000025012602202560FFF7E0FF0220266047
:10094000FFF7DCFFF6E7000040F29C14C2F200045F
:100950000025012602202560FFF7D0FF0220266037
:10096000FFF7CCFFF6E7000040F2A014C2F200044B
:100970000025012602202560FFF7C0FF0220266027
:10098000FFF7BCFFF6E7000012484FF0FF010170CF
:10099000002080F3098810484FF08051016062B652
:1009A0000D484FF080510160EFF3098020B120E93C
:1009B000F00F0A4909680860084809490A68026096
:1009C0001068B0E8F00F80F309884EF0040E70470D
:1009D00000BF00BF22ED00E004ED00E008000020B1
:1009E00010000020080A000000000020080000009D
:1009F000FC030000100A0000080000201020000086
:100A0000180400000000000040787D010000000094
:04000005000003C133
:00000001FF
