:020000040800F2
:10000000C02A0020A1010008A9010008AB010008D6
:10001000AD010008AF010008B101000800000000B8
:10002000000000000000000000000000B301000814
:10003000B501000800000000110C0008D9050008F7
:10004000BB010008BB010008BB010008BB010008A0
:10005000BB010008BB010008BB010008BB01000890
:10006000BB010008BB010008BB010008BB01000880
:10007000BB010008BB010008BB010008BB01000870
:10008000BB010008BB010008BB010008BB01000860
:10009000BB010008BB010008BB010008BB01000850
:1000A000BB010008BB010008BB010008BB01000840
:1000B000BB010008BB010008BB010008BB01000830
:1000C000BB010008BB010008BB010008BB01000820
:1000D000BB010008BB010008BB010008BB01000810
:1000E000BB010008BB010008BB01000800F002F8DA
:1000F00000F03AF80AA090E8000C82448344AAF188
:100100000107DA4501D100F02FF8AFF2090EBAE885
:100110000F0013F0010F18BFFB1A43F0010318473B
:100120003C0B00005C0B0000103A24BF78C878C17B
:10013000FAD8520724BF30C830C144BF04680C60ED
:10014000704700000023002400250026103A28BF35
:1001500078C1FBD8520728BF30C148BF0B60704739
:100160001FB51FBD10B510BD00F03DF81146FFF7DB
:10017000F7FF00F0DDFB00F05BF803B4FFF7F2FFE0
:1001800003BC00F063F8000062B6704772B67047B7
:10019000EFF3108062B6704780F31088704700005C
:1001A0000948804709480047FEE7FEE7FEE7FEE70B
:1001B000FEE7FEE7FEE7FEE7FEE7FEE70448054947
:1001C000054A064B70470000590600085D08000804
:1001D000C0240020C02A0020C0260020C026002005
:1001E000704770477047754600F02CF8AE46050022
:1001F0006946534620F00700854618B020B5FFF742
:10020000DDFFBDE820404FF000064FF000074FF043
:1002100000084FF0000BAC46ACE8C009ACE8C009E0
:10022000ACE8C009ACE8C00921F007018D46704771
:1002300010B50446AFF300802046BDE81040FFF73C
:100240009CBF0000004870470800002001491820AA
:10025000ABBEFEE7260002007047000000F01F0161
:10026000012202FA01F1DB4A400952F8203023EA68
:10027000010142F820100020704700BF08490844DF
:100280004FEAB020062884BF0020704705A151F82E
:1002900020005B490968084018BF0120704700BF73
:1002A00000F8FEBF0400000008000000100000007D
:1002B000200000004000000080000000000100005D
:1002C0000F2984BF00207047F8B51D4617460E461B
:1002D0000446FFF7D3FF18B92046012100F028F8A3
:1002E0007DB9032F07D0022F0BD10120E168B04068
:1002F00021EA000003E00120E168B0400843022742
:10030000E0606FF01F01082E28BF0434206801EB65
:1003100086014FF00F0238BFB1008A409043206041
:1003200045EA870088402168084320600120F8BD25
:1003300091B13149884222D0304908444FEAB02077
:10034000052858D8DFE800F003252A2F34392C4837
:10035000016841F008014DE02749884214D027493F
:1003600008444FEAB020052845D8DFE800F0032B09
:1003700030353A3F2248016821F008013AE0204830
:10038000016841F0040135E01D48016821F00401D5
:1003900030E01B48016841F010012BE0184801686B
:1003A00041F0200126E01648016841F0400121E0BB
:1003B0001348016841F080011CE01148016841F4D4
:1003C000807117E00E48016821F0100112E00C481E
:1003D000016821F020010DE00948016821F0400189
:1003E00008E00748016821F0800103E00448016843
:1003F00021F48071016070470008014000F4FEBFE5
:100400001810024080B57348006800F0BDF980BD47
:1004100070480021016070477A4900200022B2F53F
:10042000C07F08BF70478B188850C3E901000C32A9
:10043000F5E700BFD34900200022C02A08BF70475B
:100440008B188850C3E901000C32F6E770B5017BC8
:10045000604BC1F3421253F8224001F01F05012600
:1004600006FA05F52C43F24D43F8224001EB410416
:1004700005EB8403194651F8082F32B15C686569B1
:10048000C0E904455860606105E045F82400002497
:10049000C0E904445860501C086070BDB0B5426BA0
:1004A000B84B42F001024263B54A12680A44C0E9FF
:1004B000091202F00F0202EB420253F8224003EB52
:1004C00082023CB154B12346646A8C420BD8DC6989
:1004D0001D46F7E70021C16110600FE00021E861CF
:1004E000C0E906510AE0196A4C68012C08BF08608F
:1004F000996981619969C8619861C36102625068B4
:10050000013050600020B0BD10B5816802290AD3C7
:10051000D0E9001200244B691C6154694C61C0E9A8
:1005200000310A61516110BDD0E907210B68834297
:1005300004D08369DA61C2691AB903E00A600AB1BA
:10054000002393610022C0E9062248680138486010
:100550007047000070B50446406BE14D40F0FF006D
:100560006063207B00EB400105EB8102916809B3D9
:1005700001290BD10021C2E90011FFF76FFE207B9A
:1005800000EB400105EB810189680AE0D4E90436FB
:1005900023B12EB15E616269136102E0166000E072
:1005A000536000EB4000002205EB80000139C4E9F4
:1005B0000422816070BD00BF00F01F01012202FA19
:1005C00001F1044A400952F82030194342F8201042
:1005D000002070473801002010B5FFF7D9FD044610
:1005E00000F0B2F8BD48BE49006800EB400001EBE6
:1005F000800000F01FF92046FFF7CEFDBDE8104057
:1006000000F000B93C0100200E48016801F00C0226
:100610000D49082A0BD10268C2F3834203680232F3
:10062000DB0302D503689B0300D508495143084A00
:10063000084B11600068C0F30310185C21FA00F049
:10064000106070470410024000127A0000093D005B
:10065000000000204C0C000882B03648364A016881
:1006600041F0010101604168114041600168334A75
:1006700011400160016821F480210160416821F48A
:10068000FE0141604FF41F01816000210191009142
:10069000016841F480310160016801F4003100918A
:1006A000019901310191009919B90199B1F5A06F32
:1006B000F2D10168890354BF002101210091009902
:1006C000012930D11E490A6842F010020A600A6806
:1006D00022F003020A600A6842F002020A604168DE
:1006E000416041684160416841F480614160416816
:1006F00021F47C114160416841F4E81141600168D6
:1007000041F08071016001688901FCD5416821F0E8
:1007100003014160416841F002014160416801F01C
:100720000C010829FAD107484FF00061016002B0BE
:10073000704700BF001002400000FFF8FFFFF6FE08
:100740000020024008ED00E070B50D4D0D4928680D
:100750000130286000F00F0000EB400051F82060ED
:100760006EB134462868A16AF669081A6062F7D14A
:100770002046FFF7D9FE2046FFF768FEF0E770BD80
:10078000680000206C000020B0B581B2002908BFCD
:10079000000CC2B2002AB1FA81F108BF000A10F0C1
:1007A0000F034FEA511108BF000910F003044FEA8C
:1007B000011108BF80080125002A08BF083125EA79
:1007C0000000002B08BF0431002C08BF0231084490
:1007D000C0B2B0BDF8B5012002901F2001900548BD
:1007E0001D498030064A009003A0002300F01EF946
:1007F0008FBD00BF0003002069646C65000000002D
:10080000490B000810B5FFF7C3FC0446FFF7FAFDDB
:1008100032490860324900EB400051F82000284975
:1008200008602046FFF7B8FCBDE8104000F0ECB9C6
:100830003C010020016851B1074A914207D0CA6AC1
:1008400012B1013ACA6202D18268022A00D270470C
:100850000A6BCA62FFF758BEC8020020BFB5FFF797
:1008600095FC0120012500F0C5F8154C1549002024
:1008700020600860FFF7CCFDFFF7CEFDFFF7DAFD43
:10088000FFF7A8FF102001900F48124900F5006003
:10089000114A00900DA00023029500F0C7F8FFF761
:1008A000B1FD0E4908600E4900EB400051F82000F0
:1008B0002060FFF769FCBDE8BF4000F099B900BFB8
:1008C000340100202C010020B80300206D61696E06
:1008D0000000000080030020E5090008300100202E
:1008E0003C010020F0B5042342F8403D14241225B9
:1008F0000326022701234FF0807CC2E90937C2E9B1
:100900000B65C2E90D4006270520C2F83CC04FF038
:10091000110C1023092408250726C2E901071046F7
:10092000C2E90365C2E90543C2E907C1F0BD0000A1
:1009300070B51C4C1C48012100221CA384F83C10FB
:1009400084F844202264C4E913301A481A4D022363
:100950001AA680F8442080F83C300164C0E9136591
:10096000184D626585F8442085F83C306A65296435
:100970001549426501F50061A1631449184E01F55E
:1009800000618163124901F50061A96311A1E96465
:1009900012492965B0472846B0472046B047002095
:1009A00070BD00BFB80B0020850B00087461736B2D
:1009B00031000000100C0020D10B00087461736B33
:1009C00032000000680C0020C00C0020C014002081
:1009D000C01C00207461736B33000000E10B000841
:1009E000AD0A000880B5FFF7A3FF0020BDE88040F6
:1009F00000F048B810B50446FFF706FE0848F0219D
:100A0000017008484FF47A7100686043B0FBF1F060
:100A1000054901384860002088600720086010BD43
:100A200023ED00E00000002010E000E02DE9F0419F
:100A3000984617460D46FF26FFF7AAFB0446DDB190
:100A4000D7B1069AC2B10798202801D9FF2616E02F
:100A500008990026C5E90966C5E90B11C5E90666CE
:100A6000287338464146FFF73DFF28602846FFF7C8
:100A7000EDFC287BFFF7A0FD2046FFF78DFB70B251
:100A8000BDE8F081B0B50546FFF782FB04460DB125
:100A9000284601E02B480068FFF75CFD2046FFF781
:100AA0007BFBBDE8B040FFF7ADBE00BF70B50546AB
:100AB000FFF76EFB0446286DA0B195F8440008B915
:100AC000A86B78B12E1D304600F03FF8024608288A
:100AD000A8BF0822E96C304600F042F895F83C00C7
:100AE000202801D9FF2614E00026C5E906662873F0
:100AF000AA6B2B6CD5E91401C5E90966C5E90B336E
:100B0000FFF7F0FE28602846FFF7A0FC287BFFF7E0
:100B100053FD2046FFF740FB70B270BD70B5044630
:100B2000FFF736FB074E054630682146FFF7B6FC57
:100B30003068FFF70FFD2846FFF72EFBBDE8704039
:100B4000FFF760BE2C010020FEE730B10146002017
:100B50000A5C0130002AFBD170474FF0FF3070472C
:100B600010B503464FF0FF3053B149B100200C5C83
:100B7000002C18BF01241C5402D001309042F6D33F
:100B800010BD0000104C012120464FF00108FFF776
:100B9000CFFB20460D21002203234FF00009FFF771
:100BA0008FFB0A4D4FF400574FF00056276102208B
:100BB000C5F800902661FFF7B1FF0220C5F800805C
:100BC0002761FFF7ABFFF2E700100140BC020020F5
:100BD00002480021012201600260FCE7C0020020FF
:100BE00002480021012201600260FCE7C4020020EB
:100BF00012484FF0FF010170002080F3098810486F
:100C00004FF08051016062B60D484FF08051016095
:100C1000EFF3098020B120E9F00F0A490968086064
:100C2000084809490A6802601068B0E8F00F80F3CC
:100C300009884EF0040E704700BF00BF22ED00E0AF
:100C400004ED00E02C010020340100200000000031
:100C5000000000000102030406070809800C0008D8
:100C6000000000200800000028010008880C00088F
:100C700008000020B82A000044010008000000001D
:080C800000A24A04000000007C
:04000005080000ED02
:00000001FF
